:020000040000FA
:100000000C9462000C948A000C948A000C948A0070
:100010000C948A000C948A000C948A000C948A0038
:100020000C948A000C948A000C948A000C948A0028
:100030000C948A000C948A000C948A000C948A0018
:100040000C945C060C948A000C94CC060C94A606C6
:100050000C948A000C948A000C948A000C948A00F8
:100060000C948A000C948A000000000024002700F1
:100070002A0000000000250028002B0000000008D6
:10008000000201000003040700000000000000005F
:1000900000000000230026002900040404040404D6
:1000A0000404020202020202030303030303010227
:1000B00004081020408001020408102001020408F6
:1000C0001020FE0611241FBECFEFD8E0DEBFCDBF4B
:1000D00011E0A0E0B1E0ECEDF7E102C005900D9277
:1000E000AE35B107D9F722E0AEE5B1E001C01D920F
:1000F000A134B207E1F710E0C2E6D0E004C02197D6
:10010000FE010E94E60BC136D107C9F70E946807BD
:100110000C94EC0B0C940000CF92DF92EF92FF92C4
:10012000CF93DF93B0913502A0E08111AB2F809186
:10013000360290E0880F991FAC0140575F4FC09086
:100140003B02D0903C02E0903D02F0903E0230E055
:1001500020E0FA01C591D491E881B90190E080E0F6
:10016000EB23EA130AC02F5F3F4F6C157D058E0508
:100170009F0578F36FEF7FEFCB01DF91CF91FF9079
:10018000EF90DF90CF900895FC01538D448D252F83
:1001900030E0842F90E0821B930B541710F0CF9621
:1001A000089501970895FC01918D828D981761F053
:1001B000A28DAE0FBF2FB11D5D968C91928D9F5F6A
:1001C0009F73928F90E008958FEF9FEF0895FC0149
:1001D000918D828D981731F0828DE80FF11D858DFC
:1001E00090E008958FEF9FEF0895FC01918D228D8F
:1001F000892F90E0805C9F4F821B91098F73992714
:100200000895FC01A48DA80FB92FB11DA35ABF4FAB
:100210002C91848D90E001968F739927848FA68905
:10022000B7892C93A089B1898C91837080648C9359
:10023000938D848D981306C00288F389E02D808108
:100240008F7D80830895EF92FF920F931F93CF933A
:10025000DF93EC0181E0888F9B8D8C8D98131AC001
:10026000E889F989808185FF15C09FB7F894EE89E8
:10027000FF896083E889F989808183708064808345
:100280009FBF81E090E0DF91CF911F910F91FF9090
:10029000EF900895F62E0B8D10E00F5F1F4F0F7338
:1002A0001127E02E8C8D8E110CC00FB607FCFACFF3
:1002B000E889F989808185FFF5CFCE010E9401018F
:1002C000F1CFEB8DEC0FFD2FF11DE35AFF4FF082C4
:1002D0009FB7F8940B8FEA89FB8980818062CFCF2A
:1002E000CF93DF93EC01888D8823B9F0AA89BB896D
:1002F000E889F9898C9185FD03C0808186FD0DC058
:100300000FB607FCF7CF8C9185FFF2CF808185FF78
:10031000EDCFCE010E940101E9CFDF91CF91089589
:1003200089E791E00E94F50021E0892B09F420E0A3
:10033000822F089580E090E0892B29F00E9490019F
:1003400081110C940000089590E0FC01E458FF4FE7
:100350002491FC01E255FF4F3491FC01E656FF4F1A
:10036000E491EE23C9F0222339F0233001F1A8F4FF
:10037000213019F1223029F1F0E0EE0FFF1FEE5885
:10038000FF4FA591B4918FB7F894EC91611126C0FD
:1003900030953E233C938FBF08952730A9F0283035
:1003A000C9F0243049F7809180008F7D03C080918F
:1003B00080008F7780938000DFCF84B58F7784BDF6
:1003C000DBCF84B58F7DFBCF8091B0008F7780939A
:1003D000B000D2CF8091B0008F7DF9CF3E2BDACF25
:1003E000CF93DF9390E0FC01E255FF4F24918656B6
:1003F0009F4FFC0184918823C9F090E0880F991FDA
:10040000FC01E859FF4FA591B491FC01EE58FF4F54
:10041000C591D49161110DC09FB7F8948C9120952E
:1004200082238C938881282328839FBFDF91CF91DB
:100430000895623051F49FB7F8943C91822F8095D3
:1004400083238C93E8812E2BEFCF8FB7F894EC9118
:100450002E2B2C938FBFEACF8E50806480937C002C
:1004600080917A00806480937A0080917A0086FD82
:10047000FCCF809178009091790008953FB7F8946F
:100480008091710190917201A0917301B0917401FA
:1004900026B5A89B05C02F3F19F00196A11DB11DDF
:1004A0003FBFBA2FA92F982F8827BC01CD01620F1B
:1004B000711D811D911D42E0660F771F881F991FD6
:1004C0004A95D1F708958F929F92AF92BF92CF92A3
:1004D000DF92EF92FF924B015C010E943E026B01A2
:1004E0007C010E943E026C197D098E099F09683EBD
:1004F000734081059105A8F321E0821A9108A108B3
:10050000B10888EEC80E83E0D81EE11CF11C8114EE
:100510009104A104B10429F7FF90EF90DF90CF90F0
:10052000BF90AF909F908F900895CF92DF92EF92FF
:10053000FF920F931F93CF93DF93CDB7DEB7C054D5
:10054000D1400FB6F894DEBF0FBECDBF2FB7F894E1
:100550008091750190917601A0917701B091780119
:100560002FBF40913702509138026091390270914B
:100570003A028C019D01041B150B260B370BB901A8
:10058000A801403D57406105710590F480913F02FC
:10059000C05CDE4F0FB6F894DEBF0FBECDBFDF915B
:1005A000CF911F910F91FF90EF90DF90CF90089522
:1005B0008093370290933802A0933902B0933A02A5
:1005C00010923202109231021092300210922F02D9
:1005D00010922E0262E0809133020E94F00161E0ED
:1005E00070E080E090E00E94630261E0809133025D
:1005F0000E94F00160E0809133020E94A40180918A
:1006000034028551823020F58BE291E10197F1F7B8
:1006100062E0809133020E94F0018091400290E0FC
:100620008230910538F0880F991F880F991F059720
:100630000197F1F7F89480E00E948C006F3F7F4FA4
:100640008F4F9F4F61F410923F02789480E0A0CFCB
:1006500064E170E080E090E00E946302D9CF81E025
:100660000E948C006F3F7F4F8F4F9F4F61F38E0131
:100670000F5F1F4F6E018FEBC81A8EEFD80A7801FB
:1006800080E00E948C00F7016083718382839383F2
:1006900081E00E948C00F7016483758386839783D1
:1006A000F8E0EF0EF11CEC14FD0451F7789430E003
:1006B00020E0F801C080D180E280F3804481558140
:1006C00066817781FFEFCF16DF06EF06FF0631F078
:1006D0004F3F8FEF58076807780719F410923F02D1
:1006E000B5CFF90183E0F595E7958A95E1F7E25DED
:1006F000FD4F8081880FC416D506E606F70610F177
:1007000080832F5F3F4F085F1F4F2832310589F6E6
:100710004091320220912E0280912F02280F332720
:10072000331F80913002280F311D80913102820FDA
:10073000932F911D99274817190681F681E0809320
:100740003F0226CF8160DCCFAF92BF92CF92DF9283
:10075000EF92FF920F931F93CF93DF936C017B0176
:100760008B01040F151FEB015E01AE18BF08C01707
:10077000D10759F06991D601ED91FC910190F0817A
:10078000E02DC6010995892B79F7C501DF91CF913D
:100790001F910F91FF90EF90DF90CF90BF90AF909F
:1007A0000895089590E080E00895FC0101900020F4
:1007B000E9F73197AF01481B590BBC0186E192E084
:1007C0000C94A4038F929F92AF92BF920F931F93AA
:1007D000CF93DF93CDB7DEB7A1970FB6F894DEBF06
:1007E0000FBECDBF19A2423008F44AE08E010F5D62
:1007F0001F4F842E912CB12CA12CA50194010E9495
:10080000C40BE62FB901CA01EA30F4F4E05DD80167
:10081000EE938D01232B242B252B79F790E080E09C
:10082000109719F0CD010E94D503A1960FB6F89448
:10083000DEBF0FBECDBFDF91CF911F910F91BF9053
:10084000AF909F908F900895E95CE1CFCF93DF93B5
:10085000EC0160E08E810E94A40161E08E810E9423
:10086000A40160E08E810E94A4018BE891E00197D1
:10087000F1F7DF91CF910895CF92DF92EF92FF923F
:100880000F931F93CF93DF936C017C0187E0E80EF9
:10089000F11CD0E0C0E0062F10E0B8010C2E02C021
:1008A000759567950A94E2F76170F70181917F0170
:1008B0000E94A4012196C430D10579F7C601DF91C9
:1008C000CF911F910F91FF90EF90DF90CF900C94FC
:1008D0002604CF92DF92EF92FF920F931F93CF9354
:1008E000DF93EC01F62E642F8C810E94A4018D8190
:1008F0008F3F19F060E00E94A4010F2D10E08F855A
:1009000084FF25C06E0187E0C80ED11CF12CE12CBC
:10091000B8010E2C02C0759567950A94E2F76170D4
:10092000F60181916F010E94A401FFEFEF1AFF0A07
:1009300088E0E816F10461F7CE01DF91CF911F91B5
:100940000F91FF90EF90DF90CF900C942604B801A8
:1009500084E0759567958A95E1F7CE010E943C0485
:100960006F2DCE01DF91CF911F910F91FF90EF90EE
:10097000DF90CF900C943C0440E0682F86E192E039
:100980000C94690481E00E94BC048BE39FE1019711
:10099000F1F70895CF93DF93613029F0909125020C
:1009A0009860909325026093290210922A0290E4A5
:1009B00090932B0280932C02805C80932D0261E047
:1009C00080911A020E94F00180911B028F3F19F062
:1009D00061E00E94F00161E080911C020E94F00140
:1009E000C6E1D2E09E01265132408091250284FD6D
:1009F0000BC084E090E021962817390744F461E0A9
:100A00008E810E94F001EECF88E090E0F4CF8BE37E
:100A10009DE00197F1F760E080911A020E94A40125
:100A200060E080911C020E94A40180911B028F3F14
:100A300019F060E00E94A4018091250284FD34C079
:100A400063E086E192E00E943C04CBE4D6E4CE0170
:100A50000197F1F763E086E192E00E943C04219760
:100A6000F1F763E086E192E00E943C0483E592E0C6
:100A70000197F1F762E086E192E00E943C048091E8
:100A8000250280620E94BC0484E0809326028CE0F0
:100A90000E94BC040E94C20482E08093270286E088
:100AA000DF91CF910C94BC0480620E94BC048BE463
:100AB00096E40197F1F78091250280620E94BC04C0
:100AC00083E592E00197F1F78091250280620E9410
:100AD000BC04D5CF90912902891710F08FEF890FB0
:100AE000E82FF0E0EA5EFD4F848980680C94BC0436
:100AF00041E00E94690481E090E008954F925F9286
:100B00006F927F928F929F92AF92BF92CF92DF921D
:100B1000EF92FF920F931F93CF936B017C01742E82
:100B2000AC019B010E94BF0B882399F08EE191E0FC
:100B3000CF911F910F91FF90EF90DF90CF90BF90DA
:100B4000AF909F908F907F906F905F904F900C949C
:100B5000D50346015701E894B7F82FEF3FEF4FE771
:100B60005FE7C501B4010E94BF0B81110DC02FEFDB
:100B70003FEF4FE75FE7C501B4010E94F509181682
:100B80001CF482E291E0D4CF2FEF3FEF4FE75FE418
:100B9000C701B6010E944D0B18161CF486E291E0C5
:100BA000C7CF2FEF3FEF4FE75FECC701B6010E94C1
:100BB000F50987FDF3CF20E030E0A901C701B601B8
:100BC0000E94F50910E000E087FF0CC041E06DE2F3
:100BD00086E192E00E946904F7FAF094F7F8F09445
:100BE00001E010E0C0E060E070E080E09FE37C1690
:100BF00041F020E030E040E251E40E94FA09CF5F8A
:100C0000F6CFA70196010E9489094B015C010E9461
:100C10006C0A2B013C014AE00E94E203080F191FF5
:100C2000CC23C9F1C301B2010E949B0A9B01AC0114
:100C3000C501B4010E9488094B015C0141E06EE2EC
:100C400086E192E00E9469040F5F1F4FC15018F1C6
:100C500020E030E040E251E4C501B4010E94520BB3
:100C60002B013C010E946C0A4B01B12CA12C4AE0E3
:100C7000C501B4010E94E203080F191FC501B401A8
:100C80000E949B0A9B01AC01C301B2010E9488092A
:100C90004B015C01DBCFC801CF911F910F91FF90F9
:100CA000EF90DF90CF90BF90AF909F908F907F900C
:100CB0006F905F904F9008951F920F920FB60F9212
:100CC00011242F933F938F939F93AF93BF93809162
:100CD000750190917601A0917701B09178013091E2
:100CE000700123E0230F2D3758F50196A11DB11D8A
:100CF000209370018093750190937601A093770102
:100D0000B09378018091710190917201A09173016B
:100D1000B09174010196A11DB11D80937101909352
:100D20007201A0937301B0937401BF91AF919F9131
:100D30008F913F912F910F900FBE0F901F9018959C
:100D400026E8230F0296A11DB11DD2CF1F920F924C
:100D50000FB60F9211242F933F934F935F936F938E
:100D60007F938F939F93AF93BF93EF93FF9389E705
:100D700091E00E940101FF91EF91BF91AF919F918E
:100D80008F917F916F915F914F913F912F910F9034
:100D90000FBE0F901F9018951F920F920FB60F92D3
:100DA00011242F938F939F93EF93FF93E0918901E9
:100DB000F0918A018081E0918F01F091900182FD94
:100DC0001BC09081809192018F5F8F73209193015E
:100DD000821741F0E0919201F0E0E758FE4F958FC5
:100DE00080939201FF91EF919F918F912F910F909E
:100DF0000FBE0F901F9018958081F4CFE9E7F1E0C6
:100E00001382128288EE93E0A0E0B0E084839583A1
:100E1000A683B78384E091E09183808385EC90E0A2
:100E20009587848784EC90E09787868780EC90E0B4
:100E3000918B808B81EC90E0938B828B82EC90E0A5
:100E4000958B848B86EC90E0978B868B118E128E1F
:100E5000138E148EAEE2B2E080E115968C93159756
:100E60008BE016968C931697EEEBF0E0E4911796D4
:100E7000EC931797EAEAF0E0E4911896EC93189750
:100E800040E85EE360E070E01D964D935D936D93E6
:100E90007C935097E6E1F2E01382128286E191E0C2
:100EA0009183808314828FEF858381E0868385E040
:100EB000878384E0808783E0818782E0828713864E
:100EC000148615861686178661E080E10C94CA04A4
:100ED000789484B5826084BD84B5816084BD85B515
:100EE000826085BD85B5816085BD80916E00816021
:100EF00080936E00109281008091810082608093C7
:100F000081008091810081608093810080918000C8
:100F10008160809380008091B10084608093B100F3
:100F20008091B00081608093B00080917A008460ED
:100F300080937A0080917A00826080937A00809119
:100F40007A00816080937A0080917A008068809333
:100F50007A001092C10060E08EE00E94F00160E033
:100F60008FE00E94F00161E086E00E94F00161E004
:100F700087E00E94F00161E088E00E94F00164E0F7
:100F800084E10E94CA048AE291E00E94D50364EFE2
:100F900071E080E090E00E9463020E94C20462E07F
:100FA000809133020E94F0012FB7F894809175016F
:100FB00090917601A0917701B09178012FBF805D6B
:100FC0009740A109B1098093370290933802A0930A
:100FD0003902B0933A0287E380934002C0E0D0E048
:100FE0008EE00E942C028C0190936F0180936E0121
:100FF0008FE00E942C02BC01990F880B990B0E9474
:101000009D0A2DE032E348EC5DE30E94520B6B0138
:101010007C01C0926A01D0926B01E0926C01F09267
:101020006D01B801110F880B990B0E949D0A2AE0EF
:1010300038E240EA5BE30E94520B2DEC3CEC4CECB6
:101040005DE30E94880920E030E048EC52E40E9411
:10105000520B6093660170936701809368019093CF
:10106000690120E030E048E452E4C701B6010E9483
:101070004D0B18160CF04CC061E086E00E94A401F4
:1010800061E087E00E94A4010E94C20480E00E9407
:101090006A0587E391E00E94D50360916601709133
:1010A0006701809168019091690142E00E947E058C
:1010B00082E491E00E94D50381E00E946A0587E402
:1010C00091E00E94D50360916A0170916B0180915B
:1010D0006C0190916D0142E00E947E0582E491E0F6
:1010E0000E94D50382E00E946A050E94950288232F
:1010F00051F0809134028B3030F08D3078F0855192
:10110000823008F440C060E070E080EC9FE722C0CD
:1011100060E086E00E94A40160E0B3CF60912F02FE
:1011200070E090E080E00E949D0A2DEC3CEC4CECDD
:101130005DE30E94520B6B017C0160912E0270E016
:1011400090E080E00E949D0A9B01AC01C701B601BE
:101150000E94890960936201709363018093640126
:10116000909365010E949502882341F0809134029A
:101170008C3009F4ADC0C8F48B3081F160E070E0D0
:1011800080EC9FE753C060912E0270912F0276276A
:101190006727762790E080E00E949B0A2DEC3CECCC
:1011A0004CEC5DE30E94520BD5CF8551823030F775
:1011B00010913002612F70E0762F662766277F77C7
:1011C00080913102682B90E080E00E949B0A2DEC18
:1011D0003CEC4CEC5DE30E94520B96C060913002F7
:1011E00070E090E080E00E949B0A6B017C0110910E
:1011F000310217FF0AC0AC019B0160E070E080E89B
:101200009FEB0E9488096B017C011F70612F70E0C9
:1012100090E080E00E949D0A2DEC3CEC4CEC5DE3FC
:101220000E94520BA70196010E94890960935E01FA
:1012300070935F0180936001909361018DE491E070
:101240000E94D503609162017091630180916401F5
:101250009091650142E00E947E0583E00E946A054C
:1012600085E591E00E94D50360915E0170915F0178
:10127000809160019091610142E00E947E058CE5C1
:1012800091E00E94D50320E030E040E751E4609116
:101290005E0170915F0180916001909161010E94F7
:1012A000F50961E087FF60E088E00E94A40168EC36
:1012B00070E080E090E00E946302209709F490CEF5
:1012C0000E949001882309F48BCE0E94000088CEF2
:1012D00010913002612F70E090E080E00E949B0A44
:1012E0006B017C01609131026F7070E090E080E0F2
:1012F0000E949D0A2DEC3CEC4CEC5DE30E94520BED
:10130000A70196010E94890917FF90CF90588ECFB0
:101310005058BB27AA270E94A0090C94130B0E94C7
:10132000050B38F00E940C0B20F039F49F3F19F4A4
:1013300026F40C94020B0EF4E095E7FB0C94FC0AE7
:10134000E92F0E94240B58F3BA176207730784072A
:10135000950720F079F4A6F50C94460B0EF4E09571
:101360000B2EBA2FA02D0B01B90190010C01CA015F
:10137000A0011124FF27591B99F0593F50F4503E0A
:1013800068F11A16F040A22F232F342F4427585FFC
:10139000F3CF469537952795A795F0405395C9F714
:1013A0007EF41F16BA0B620B730B840BBAF09150CC
:1013B000A1F0FF0FBB1F661F771F881FC2F70EC06B
:1013C000BA0F621F731F841F48F48795779567953E
:1013D000B795F7959E3F08F0B0CF9395880F08F02A
:1013E0009927EE0F9795879508950E94D80A08F4DB
:1013F00081E008950E940E0A0C94130B0E940C0BBE
:1014000058F00E94050B40F029F45F3F29F00C943E
:10141000FC0A51110C94470B0C94020B0E94240BF4
:1014200068F39923B1F3552391F3951B550BBB2713
:10143000AA2762177307840738F09F5F5F4F220F58
:10144000331F441FAA1FA9F335D00E2E3AF0E0E84F
:1014500032D091505040E695001CCAF72BD0FE2F99
:1014600029D0660F771F881FBB1F2617370748072D
:10147000AB07B0E809F0BB0B802DBF01FF279358E5
:101480005F4F3AF09E3F510578F00C94FC0A0C94A3
:10149000470B5F3FE4F3983ED4F3869577956795C5
:1014A000B795F7959F5FC9F7880F911D969587951A
:1014B00097F90895E1E0660F771F881FBB1F621739
:1014C00073078407BA0720F0621B730B840BBA0BF7
:1014D000EE1F88F7E09508950E942C0B88F09F5727
:1014E00098F0B92F9927B751B0F0E1F0660F771F48
:1014F000881F991F1AF0BA95C9F714C0B13091F03E
:101500000E94460BB1E008950C94460B672F782F8C
:101510008827B85F39F0B93FCCF386957795679502
:10152000B395D9F73EF490958095709561957F4F6E
:101530008F4F9F4F0895E89409C097FB3EF4909514
:101540008095709561957F4F8F4F9F4F9923A9F09C
:10155000F92F96E9BB279395F6958795779567952B
:10156000B795F111F8CFFAF4BB0F11F460FF1BC06F
:101570006F5F7F4F8F4F9F4F16C0882311F096E902
:1015800011C0772321F09EE8872F762F05C06623B0
:1015900071F096E8862F70E060E02AF09A95660F69
:1015A000771F881FDAF7880F9695879597F9089522
:1015B000990F0008550FAA0BE0E8FEEF1616170664
:1015C000E807F907C0F012161306E407F50798F0CC
:1015D000621B730B840B950B39F40A2661F0232BE5
:1015E000242B252B21F408950A2609F4A140A69561
:1015F0008FEF811D811D089597F99F6780E870E046
:1016000060E008959FEF80EC089500240A94161678
:10161000170618060906089500240A9412161306E0
:10162000140605060895092E0394000C11F488236E
:1016300052F0BB0F40F4BF2B11F460FF04C06F5F8A
:101640007F4F8F4F9F4F089557FD9058440F551F60
:1016500059F05F3F71F04795880F97FB991F61F034
:101660009F3F79F087950895121613061406551FAB
:10167000F2CF4695F1DF08C0161617061806991F17
:10168000F1CF86957105610508940895E894BB270C
:1016900066277727CB0197F908950E94D80A08F4A6
:1016A0008FEF08950E94650B0C94130B0E94050B9D
:1016B00038F00E940C0B20F0952311F00C94FC0ADA
:1016C0000C94020B11240C94470B0E94240B70F312
:1016D000959FC1F3950F50E0551F629FF001729FD7
:1016E000BB27F00DB11D639FAA27F00DB11DAA1FE6
:1016F000649F6627B00DA11D661F829F2227B00D33
:10170000A11D621F739FB00DA11D621F839FA00DBD
:10171000611D221F749F3327A00D611D231F849F0D
:10172000600D211D822F762F6A2F11249F57504064
:101730009AF0F1F088234AF0EE0FFF1FBB1F661FDF
:10174000771F881F91505040A9F79E3F510580F0A8
:101750000C94FC0A0C94470B5F3FE4F3983ED4F3DF
:10176000869577956795B795F795E7959F5FC1F74C
:10177000FE2B880F911D9695879597F908950E94E5
:10178000D80A880B990B0895A1E21A2EAA1BBB1B3D
:10179000FD010DC0AA1FBB1FEE1FFF1FA217B3073D
:1017A000E407F50720F0A21BB30BE40BF50B661F53
:1017B000771F881F991F1A9469F760957095809517
:1017C00090959B01AC01BD01CF010895EE0FFF1F65
:1017D0000590F491E02D0994F894FFCF00000000EB
:1017E0002301A403C4007001F500D300E70000004A
:1017F00000007805A403D203D1036E616E00696E08
:1018000066006F766600486F732047656C64696E8A
:10181000697A00416D616E796F6B203A200020700B
:10182000706D00434F203A20004E656D203D20250D
:0A18300000497369203D20004300C9
:107E0000112484B714BE81FFF0D085E080938100F7
:107E100082E08093C00088E18093C10086E0809377
:107E2000C20080E18093C4008EE0C9D0259A86E02C
:107E300020E33CEF91E0309385002093840096BBD3
:107E4000B09BFECF1D9AA8958150A9F7CC24DD24C4
:107E500088248394B5E0AB2EA1E19A2EF3E0BF2EE7
:107E6000A2D0813461F49FD0082FAFD0023811F036
:107E7000013811F484E001C083E08DD089C08234E0
:107E800011F484E103C0853419F485E0A6D080C0E4
:107E9000853579F488D0E82EFF2485D0082F10E0AE
:107EA000102F00270E291F29000F111F8ED06801E7
:107EB0006FC0863521F484E090D080E0DECF843638
:107EC00009F040C070D06FD0082F6DD080E0C81688
:107ED00080E7D80618F4F601B7BEE895C0E0D1E017
:107EE00062D089930C17E1F7F0E0CF16F0E7DF06D8
:107EF00018F0F601B7BEE89568D007B600FCFDCFD4
:107F0000A601A0E0B1E02C9130E011968C91119780
:107F100090E0982F8827822B932B1296FA010C0160
:107F200087BEE89511244E5F5F4FF1E0A038BF0790
:107F300051F7F601A7BEE89507B600FCFDCF97BE46
:107F4000E89526C08437B1F42ED02DD0F82E2BD052
:107F50003CD0F601EF2C8F010F5F1F4F84911BD097
:107F6000EA94F801C1F70894C11CD11CFA94CF0C13
:107F7000D11C0EC0853739F428D08EE10CD085E9AC
:107F80000AD08FE07ACF813511F488E018D01DD067
:107F900080E101D065CF982F8091C00085FFFCCF94
:107FA0009093C60008958091C00087FFFCCF809118
:107FB000C00084FD01C0A8958091C6000895E0E648
:107FC000F0E098E1908380830895EDDF803219F02E
:107FD00088E0F5DFFFCF84E1DECF1F93182FE3DFCA
:107FE0001150E9F7F2DF1F91089580E0E8DFEE27F6
:047FF000FF270994CA
:027FFE00040479
:00000001FF
